00018484199000136                     89850341001212GRENDENE             2010231406CON201014060                                                                                                                                                                                                                                                                                                                                                                                                                                                                                                                                                                                                         
320CONHE201014060                                                                                                                                                                                                                                                                                                                                                                                                                                                                                                                                                                                                                                                                                       
32118484199000136DLB SERVICOS                                                                                                                                                                                                                                                                                                                                                                                                                                                                                                                                                                                                                                                                           
322DLF       0    89135       11102023C000300000000000000246200000000000000000000000000000000000000000000006620000000000018000000000000000000000000000000000000000000000000000000000000000000000000000002535184841990001368985034100121211 00381419   00000000   00000000   00000000   00000000   00000000   00000000   00000000   00000000   00000000   00000000   00000000   00000000   00000000   00000000   00000000   00000000   00000000   00000000   00000000   00000000   00000000   00000000   00000000   00000000   00000000   00000000   00000000   00000000   00000000   00000000   00000000   00000000   00000000   00000000   00000000   00000000   00000000   00000000   00000000IN5352  
322DLF       0    89136       11102023C000053600000000000015500000000000000000000000000000000000000000000001180000000000000370000000000000000000000000000000000000000000000000000000000000000000000000002535184841990001368985034100121211 00381590   00000000   00000000   00000000   00000000   00000000   00000000   00000000   00000000   00000000   00000000   00000000   00000000   00000000   00000000   00000000   00000000   00000000   00000000   00000000   00000000   00000000   00000000   00000000   00000000   00000000   00000000   00000000   00000000   00000000   00000000   00000000   00000000   00000000   00000000   00000000   00000000   00000000   00000000   00000000IN5352  
322DLF       0    89137       11102023C003000000000000000691400000000000000000000000000000000000000000000066240000000000002900000000000000000000000000000000000000000000000000000000000000000000000000002535184841990001368985034100121211 00381796   00000000   00000000   00000000   00000000   00000000   00000000   00000000   00000000   00000000   00000000   00000000   00000000   00000000   00000000   00000000   00000000   00000000   00000000   00000000   00000000   00000000   00000000   00000000   00000000   00000000   00000000   00000000   00000000   00000000   00000000   00000000   00000000   00000000   00000000   00000000   00000000   00000000   00000000   00000000IN5352  
322DLF       0    89138       11102023C000001800000000000008000000000000000000000000000000000000000000000000040000000000000760000000000000000000000000000000000000000000000000000000000000000000000000002535184841990001368985034100121211 00381801   00000000   00000000   00000000   00000000   00000000   00000000   00000000   00000000   00000000   00000000   00000000   00000000   00000000   00000000   00000000   00000000   00000000   00000000   00000000   00000000   00000000   00000000   00000000   00000000   00000000   00000000   00000000   00000000   00000000   00000000   00000000   00000000   00000000   00000000   00000000   00000000   00000000   00000000   00000000IN5352  
322DLF       0    89139       11102023C003930000000000004030200000000000000000000000000000000000000000000086780000000000316240000000000000000000000000000000000000000000000000000000000000000000000000002535184841990001368985034100121211 00381860   00000000   00000000   00000000   00000000   00000000   00000000   00000000   00000000   00000000   00000000   00000000   00000000   00000000   00000000   00000000   00000000   00000000   00000000   00000000   00000000   00000000   00000000   00000000   00000000   00000000   00000000   00000000   00000000   00000000   00000000   00000000   00000000   00000000   00000000   00000000   00000000   00000000   00000000   00000000IN5352  
322DLF       0    89208       11102023C000016600000000000014800000000000000000000000000000000000000000000000230000000000001250000000000000000000000000000000000000000000000000000000000000000000000000002535184841990001368985034100121211 00381572   00000000   00000000   00000000   00000000   00000000   00000000   00000000   00000000   00000000   00000000   00000000   00000000   00000000   00000000   00000000   00000000   00000000   00000000   00000000   00000000   00000000   00000000   00000000   00000000   00000000   00000000   00000000   00000000   00000000   00000000   00000000   00000000   00000000   00000000   00000000   00000000   00000000   00000000   00000000IN5352  
322DLF       0    89209       11102023C000002100000000000001100000000000000000000000000000000000000000000000030000000000000080000000000000000000000000000000000000000000000000000000000000000000000000002535184841990001368985034100121211 00381581   00000000   00000000   00000000   00000000   00000000   00000000   00000000   00000000   00000000   00000000   00000000   00000000   00000000   00000000   00000000   00000000   00000000   00000000   00000000   00000000   00000000   00000000   00000000   00000000   00000000   00000000   00000000   00000000   00000000   00000000   00000000   00000000   00000000   00000000   00000000   00000000   00000000   00000000   00000000IN5352  
322DLF       0    89210       11102023C000009900000000000004100000000000000000000000000000000000000000000000140000000000000270000000000000000000000000000000000000000000000000000000000000000000000000002535184841990001368985034100121211 00381603   00000000   00000000   00000000   00000000   00000000   00000000   00000000   00000000   00000000   00000000   00000000   00000000   00000000   00000000   00000000   00000000   00000000   00000000   00000000   00000000   00000000   00000000   00000000   00000000   00000000   00000000   00000000   00000000   00000000   00000000   00000000   00000000   00000000   00000000   00000000   00000000   00000000   00000000   00000000IN5352  
322DLF       0    89211       11102023C002000000000000000282100000000000000000000000000000000000000000000027750000000000000460000000000000000000000000000000000000000000000000000000000000000000000000002535184841990001368985034100121211 00381797   00000000   00000000   00000000   00000000   00000000   00000000   00000000   00000000   00000000   00000000   00000000   00000000   00000000   00000000   00000000   00000000   00000000   00000000   00000000   00000000   00000000   00000000   00000000   00000000   00000000   00000000   00000000   00000000   00000000   00000000   00000000   00000000   00000000   00000000   00000000   00000000   00000000   00000000   00000000IN5352  
322DLF       0    89212       11102023C003200000000000000702200000000000000000000000000000000000000000000044410000000000025810000000000000000000000000000000000000000000000000000000000000000000000000002535184841990001368985034100121211 00381840   00000000   00000000   00000000   00000000   00000000   00000000   00000000   00000000   00000000   00000000   00000000   00000000   00000000   00000000   00000000   00000000   00000000   00000000   00000000   00000000   00000000   00000000   00000000   00000000   00000000   00000000   00000000   00000000   00000000   00000000   00000000   00000000   00000000   00000000   00000000   00000000   00000000   00000000   00000000IN5352  
322DLF       0    89213       11102023C000050000000000000007100000000000000000000000000000000000000000000000690000000000000020000000000000000000000000000000000000000000000000000000000000000000000000002535184841990001368985034100121211 00381847   00000000   00000000   00000000   00000000   00000000   00000000   00000000   00000000   00000000   00000000   00000000   00000000   00000000   00000000   00000000   00000000   00000000   00000000   00000000   00000000   00000000   00000000   00000000   00000000   00000000   00000000   00000000   00000000   00000000   00000000   00000000   00000000   00000000   00000000   00000000   00000000   00000000   00000000   00000000IN5352  
322DLF       0    89214       11102023C000100000000000000015800000000000000000000000000000000000000000000001390000000000000190000000000000000000000000000000000000000000000000000000000000000000000000002535184841990001368985034100121211 00381862   00000000   00000000   00000000   00000000   00000000   00000000   00000000   00000000   00000000   00000000   00000000   00000000   00000000   00000000   00000000   00000000   00000000   00000000   00000000   00000000   00000000   00000000   00000000   00000000   00000000   00000000   00000000   00000000   00000000   00000000   00000000   00000000   00000000   00000000   00000000   00000000   00000000   00000000   00000000IN5352  
322DLF       0    89215       11102023C000600000000000000084500000000000000000000000000000000000000000000008330000000000000120000000000000000000000000000000000000000000000000000000000000000000000000002535184841990001368985034100121211 00381864   00000000   00000000   00000000   00000000   00000000   00000000   00000000   00000000   00000000   00000000   00000000   00000000   00000000   00000000   00000000   00000000   00000000   00000000   00000000   00000000   00000000   00000000   00000000   00000000   00000000   00000000   00000000   00000000   00000000   00000000   00000000   00000000   00000000   00000000   00000000   00000000   00000000   00000000   00000000IN5352  
322DLF       0    89342       12102023C000030000000000000006600000000000000000000000000000000000000000000000630000000000000030000000000000000000000000000000000000000000000000000000000000000000000000002535184841990001368985034100121211 00382093   00000000   00000000   00000000   00000000   00000000   00000000   00000000   00000000   00000000   00000000   00000000   00000000   00000000   00000000   00000000   00000000   00000000   00000000   00000000   00000000   00000000   00000000   00000000   00000000   00000000   00000000   00000000   00000000   00000000   00000000   00000000   00000000   00000000   00000000   00000000   00000000   00000000   00000000   00000000IN5352  
322DLF       0    89343       12102023C000011000000000000010300000000000000000000000000000000000000000000000230000000000000800000000000000000000000000000000000000000000000000000000000000000000000000002535184841990001368985034100121211 00382106   00000000   00000000   00000000   00000000   00000000   00000000   00000000   00000000   00000000   00000000   00000000   00000000   00000000   00000000   00000000   00000000   00000000   00000000   00000000   00000000   00000000   00000000   00000000   00000000   00000000   00000000   00000000   00000000   00000000   00000000   00000000   00000000   00000000   00000000   00000000   00000000   00000000   00000000   00000000IN5352  
322DLF       0    89344       12102023C001020000000000000579100000000000000000000000000000000000000000000021260000000000036650000000000000000000000000000000000000000000000000000000000000000000000000002535184841990001368985034100121211 00382155   00000000   00000000   00000000   00000000   00000000   00000000   00000000   00000000   00000000   00000000   00000000   00000000   00000000   00000000   00000000   00000000   00000000   00000000   00000000   00000000   00000000   00000000   00000000   00000000   00000000   00000000   00000000   00000000   00000000   00000000   00000000   00000000   00000000   00000000   00000000   00000000   00000000   00000000   00000000IN5352  
322DLF       0    89393       12102023C000082000000000000015600000000000000000000000000000000000000000000001260000000000000300000000000000000000000000000000000000000000000000000000000000000000000000002535184841990001368985034100121211 00381803   00000000   00000000   00000000   00000000   00000000   00000000   00000000   00000000   00000000   00000000   00000000   00000000   00000000   00000000   00000000   00000000   00000000   00000000   00000000   00000000   00000000   00000000   00000000   00000000   00000000   00000000   00000000   00000000   00000000   00000000   00000000   00000000   00000000   00000000   00000000   00000000   00000000   00000000   00000000IN5352  
322DLF       0    89394       12102023C000030000000000000004900000000000000000000000000000000000000000000000460000000000000030000000000000000000000000000000000000000000000000000000000000000000000000002535184841990001368985034100121211 00382092   00000000   00000000   00000000   00000000   00000000   00000000   00000000   00000000   00000000   00000000   00000000   00000000   00000000   00000000   00000000   00000000   00000000   00000000   00000000   00000000   00000000   00000000   00000000   00000000   00000000   00000000   00000000   00000000   00000000   00000000   00000000   00000000   00000000   00000000   00000000   00000000   00000000   00000000   00000000IN5352  
322DLF       0    89395       12102023C000580000000000000246100000000000000000000000000000000000000000000008880000000000015730000000000000000000000000000000000000000000000000000000000000000000000000002535184841990001368985034100121211 00382102   00000000   00000000   00000000   00000000   00000000   00000000   00000000   00000000   00000000   00000000   00000000   00000000   00000000   00000000   00000000   00000000   00000000   00000000   00000000   00000000   00000000   00000000   00000000   00000000   00000000   00000000   00000000   00000000   00000000   00000000   00000000   00000000   00000000   00000000   00000000   00000000   00000000   00000000   00000000IN5352  
322DLF       0    89396       12102023C000020000000000000038200000000000000000000000000000000000000000000000310000000000003510000000000000000000000000000000000000000000000000000000000000000000000000002535184841990001368985034100121211 00382145   00000000   00000000   00000000   00000000   00000000   00000000   00000000   00000000   00000000   00000000   00000000   00000000   00000000   00000000   00000000   00000000   00000000   00000000   00000000   00000000   00000000   00000000   00000000   00000000   00000000   00000000   00000000   00000000   00000000   00000000   00000000   00000000   00000000   00000000   00000000   00000000   00000000   00000000   00000000IN5352  
322DLF       0    89397       12102023C000030000000000000005200000000000000000000000000000000000000000000000460000000000000060000000000000000000000000000000000000000000000000000000000000000000000000002535184841990001368985034100121211 00382158   00000000   00000000   00000000   00000000   00000000   00000000   00000000   00000000   00000000   00000000   00000000   00000000   00000000   00000000   00000000   00000000   00000000   00000000   00000000   00000000   00000000   00000000   00000000   00000000   00000000   00000000   00000000   00000000   00000000   00000000   00000000   00000000   00000000   00000000   00000000   00000000   00000000   00000000   00000000IN5352  
3230021000000000070090                                                                                                                                                                                                                                                                                                                                                                                                                                                                                                                                                                                                                                                                                  
